:060000000C9459000C9461
:1000060000000C9400000C9400000C9400000C946A
:1000160000000C9400000C9400000C9400000C945A
:1000260000000C9400000C9400000C9400000C944A
:1000360000000C9400000C9400000C9400000C943A
:1000460000000C9400000C9400000C9400000C942A
:1000560000000C9400000C9400000C9400000C941A
:1000660000000C9400000C9400000C9400000C940A
:1000760000000C9400000C9400000C9400000C94FA
:1000860000000C9400000000000000009A99193F3F
:1000960080C001002D4E414E00494E460000020030
:1000A600620596000100660598000000F894EE27A8
:1000B600ECBBF1E0F5BFE5BFE0936C008DE0A2E09C
:1000C600BB27ED938A95E9F780E090E1A0E0B1E0E7
:1000D600ED930197E9F7E4EAF0E0859195910097B1
:1000E60061F0A591B59105901590BF01F0010590BD
:1000F6000D920197E1F7FB01F0CFEFEFEDBFE0E1E5
:10010600EEBFC0E0D5E00C949600AA93E881E066C5
:10011600E7B98BE18A95F1F7369A349BFECF349A8C
:10012600E5B10C94CA03E0E0EABBEBBBE0E6E7BB53
:10013600E0E0E8BBE4BBE5BBE1BBE2BBE2B9E3B9A7
:10014600E0936100E0936200E0936400E093650051
:10015600E0BFE3BFE2BFE1BFE1EAEFBDEBE0EEBD2A
:10016600E0E0EDBDECBDE7BDE6BDEBBDEABDE9BD3A
:10017600E8BDE0937900E0937800E5BDE4BDE3BD1A
:10018600E0938B00E0938A00E0938900E093880077
:10019600E0938100E0938000E0938700E09386007F
:1001A600E0938500E0938400E0938300E09382006F
:1001B600E7BFE0937D00E0936A00EABFE9BFEAB9D2
:1001C600E0939A00E0E8E8B9E0E6E7B9E6E8E6B9E0
:1001D600E0E0E0BDEDB9E0937400A0E10E949E036B
:1001E600A09AA19AA29ABC9ABF9A03D002D1FECF36
:1001F600FFCF0E94920308951A9310E01830F8F486
:100206000E94CC0311F4A89801C0A89A0E94D403B6
:1002160011F4A99801C0A99A0E94E10311F4AA98C1
:1002260001C0AA9A0E94EE03E050FB4FFF93EF93A2
:10023600A0E06BDFAF91BF91EC931F5FDFCF10E0C3
:100246001830F8F40E94CC0311F4A89801C0A89ABB
:100256000E94D40311F4A99801C0A99A0E94E1034F
:1002660011F4AA9801C0AA9A0E94EE03E85FFA4F19
:10027600FF93EF93A1E049DFAF91BF91EC931F5F2E
:10028600DFCF10E01830F8F40E94CC0311F4A898E0
:1002960001C0A89A0E94D40311F4A99801C0A99A92
:1002A6000E94E10311F4AA9801C0AA9A0E94EE03E3
:1002B600E05FFA4FFF93EF93A2E027DFAF91BF9184
:1002C600EC931F5FDFCFEAD119910895AA93C49AE0
:1002D600C798E0E0EBBDA881EFEFEA1BEABDE0E0DE
:1002E600E9BDE98120C0AA93C498C798E0E0EBBDB8
:1002F600E881EABDE0E0E9BDE98115C0AA93C49AA8
:10030600C79AE0E0EBBDA881EFEFEA1B06C0AA930F
:10031600C498C79AE0E0EBBDE881EABDE0E0E9BD3C
:10032600A981EFEFEA1BE8BD22960895BA93AA9336
:10033600AA81BB81A030E1E0BE0724F0E4E6F0E04C
:10034600EA83FB83A881B981A030E1E0BE0724F0EF
:10035600E4E6F0E0E883F983AA81BB81A130EFEF00
:10036600BE0724F4ECE9FFEFEA83FB83A881B98199
:10037600A130EFEFBE0724F4ECE9FFEFE883F98341
:10038600AB81AA231AF0A981AA230AF405C0EA813F
:10039600EA93A981BCDF2BC0AA81BB810E94A2057A
:1003A6001CF0A981AA230AF407C0EA81AFEFEA028A
:1003B6000A92A98198DF1BC0AB81AA232AF0A881E3
:1003C600B9810E94A2050CF409C0EA81EA93E98189
:1003D600AFEFEA02F001AE2F91DF09C0EA81AFEF7D
:1003E600EA020A92EB81EA02F001AE2F6FDF249651
:1003F60008952A978AE0A0E0B0E0ECE8F0E00E94D9
:10040600B4050E94A60500E010E020E030E040E0E0
:1004160050E0F2DEE0912505E030A1F4E0912705F9
:10042600E03081F4E0912005E03061F4E0912705A9
:10043600E03041F4E0912105E03021F4E091260519
:10044600E03051F0E0E0E0936005E09361050E9442
:10045600F5030E940E046EC00E94F5036E0F7F1F07
:10046600A0912205B0E0E4ECFFEF0E942304A091E6
:100476001C05B0E0EAEBFFEF0E942304A0911E05E5
:10048600B0E0E6EAFFEF0E942304A0911F05B0E06A
:10049600EEE3FEEF0E942304A0911D05B0E0EEE31B
:1004A600FEEF0E942304A0911B050E942804A09140
:1004B60018050E942804A09119050E942804A091FD
:1004C6001A05B0E0EAEDFDEF0E944D050E940E040C
:1004D6006E0F7F1FA0912405ECE30E942C04A091CF
:1004E6002D05E6E40E942C04A0912F05EAE50E9462
:1004F6002C04A0912E05B0E0E2ECF1E00E9423046A
:10050600A0912C05B0E0E2ECF1E00E942304A0915A
:100516002A050E943104A09129050E943104A09168
:1005260028050E943104A0912B05B0E0E6E2F2E036
:100536000E944D05E60FF71F9F01FA01E20FF31F18
:10054600EA87FB87E0912305E03009F063C0E0917C
:100556002505E03009F05EC0E0912005E03009F0A5
:1005660059C0E0912705E03009F054C0E09121051B
:10057600E03009F04FC0E0912605E03009F04AC0AE
:10058600E0912205E03009F045C0E0912405E03015
:1005960009F040C0E0911C05E030E1F5E0912D0541
:1005A600E030C1F5E0911E05E030A1F5E0912F05A0
:1005B600E03081F5E0911F05E03061F5E0912E0510
:1005C600E03041F5E0911D05E03021F5E0912C0584
:1005D600E03001F5E0911B05E030E1F4E0912A05F9
:1005E600E030C1F4E0911805E030A1F4E09129056E
:1005F600E03081F4E0911905E03061F4E0912805DE
:10060600E03041F4E0911A05E03021F4E0912B0549
:10061600E03039F0EA85FB85E0936005F0936105EB
:1006260020C0E0916005F0916105EA87FB870E9492
:100636003504AB32E1E0BE072CF40E9435040E947B
:10064600A20564F00E943504E5EDFEEFEA17FB070C
:1006560024F4A0916105AA230AF003C0E0E0EA872A
:10066600EB87EC85FD856E857F85AA85BB850E9417
:1006760040050E9492050E94E6040E9481048F01B3
:10068600E4E6F0E0E01BF10BFA93EA93D801AC59EB
:10069600BF4F4CDE0E94AD05609608951A930A93EB
:1006A60000E010E00831E0E01E07B4F4A0E0B5E099
:1006B600A00FB11FAC91A93730F0A8E1B5E0A00FAB
:1006C600B11FE1E005C0A8E1B5E0A00FB11FE0E071
:1006D600EC930F5F1F4FE6CF099119910895AA93E6
:1006E600EBB3EF70AE2FE881E07FEA2BEBBB8DE03A
:1006F6008A95F1F7DA9A8DE08A95F1F7DA988DE026
:100706008A95F1F744C0AA93A881E9DFE881E295CA
:10071600E883A881E4DF85E88A95F1F738C0A2E08E
:100726000E943A04ACE0EFDFA1E00E943A04E0E068
:100736004E2E5E2E0895AA93EAB3E06FEABBD29AD4
:10074600D09AD19ADA98D898D9987880E881E058E2
:10075600E0936405E881E054E0936505A4E1B0E028
:100766000E9448040E9440040E9440040E944004E3
:10077600A0E2B5DF88EC90E00197F1F7A8E2C3DFCD
:10078600A4E0C1DFA5E8BFDFA6E0BDDFC8DF219694
:100796000895E12FF0E0A1E0B0E00E947805E03096
:1007A6000895A12FBB27E4E0F0E00E946A05DF016F
:1007B600E2E0F0E00E946505E0300895A12FBB2736
:1007C600E8E0F0E00E946A05DF01E4E0F0E00E9464
:1007D6006505E03008951F5F11501F5F1150E12F2E
:1007E600F0E00895A0912305B0E0EBEFFFEF0E9443
:1007F6004D05BF01A0912005B0E0E1EFFFEF0E949B
:100806004D056E0F7F1FA0912105B0E0E4ECFFEFD0
:100816000E944D050895E60FF71FAF01A09125052B
:10082600E5E0EA9FB001A0912705EFE0EA9FF0011D
:100836006E0F7F1FA0912605ECE3EA9FF001089555
:100846000E944D056E0F7F1F0895B0E0EAEDFDEFA3
:10085600F7CFEA9FF0016E0F7F1F0895B0E0E6E242
:10086600F2E0EECFA0916005B091610508950E9477
:100876008603A3E0B0E00C944804A0E30E94720350
:1008860088EC90E00197F1F70895109639F080ED25
:1008960097E00197F1F7A8951197C9F708955523A1
:1008A60042F4503811F4E0FF04C03196691F791FF5
:1008B6006BF050E8572711F45F9373C05F3F31F038
:1008C600660F000C57956795752F08955F93002066
:1008D6000AF073C06CC050E8192E1522880F991FB4
:1008E6009527550F879550E8072E0522660F771F27
:1008F6007527550F67950895689401C0E8945F932E
:10090600F2DF703818F07F3F08F44BC056E1571BF2
:10091600AAF4519558300EF4593030F0EFEFFFEF4E
:100926006FEF7FE777F91AC077275523B9F0EE0FF7
:10093600FF1F661F771F5A95D1F710C077275830CB
:1009460028F0EF2FF62F672F5850F9CF552331F0A7
:1009560076956795F795E7955A95D1F700200AF4AD
:1009660084D05F910895689401C0E8943097604000
:100976007040B1F0002426F0772312F4009475D06D
:10098600172E7EE1112032F07A95EE0FFF1F661FBB
:10099600111CF9CFEF2FF62F612D5F938ADF5F9140
:1009A6000895EE27FF27662777275F910895EFEFD3
:1009B600FFEF6FE77FEF5F910895EFEFFFEF6FE7D0
:1009C6007FE75F9108955F9386DF703851F3903823
:1009D60041F301240894791F23F41CF300203AF311
:1009E600ECCF0F921F932F933F934F9311272227FC
:1009F6009927689FA0018F9F302D410D591F6B9F2E
:100A0600300D411D591F8E9F27D0BF9F25D06A9F4D
:100A160023D0BE9F1DD0AF9F1BD0AE9F110D291FA7
:100A2600391F491F591FE32FF42F652F522F4F915E
:100A36003F912F911F910F9066232AF0550FEE1FBD
:100A4600FF1F661F02C073954BF229DF5F91089561
:100A5600100D211D391F02C0200D311D491F591FC0
:100A66000895F195E195F0400895F095609570959B
:100A7600E195FF4F6F4F7F4F08958B2F880F880B9F
:100A8600982F0895FA9FF02DEB9FF00DEA9FE02D29
:100A9600F10D089534D0F6DF0EF4E3DF0895002457
:100AA600112490E1AA0FBB1F001C111C0E1A1F0A6D
:100AB60018F40E0E1F1E01C0A1609A9599F7FD014C
:100AC600D00108951CD0EBDF0EF4CBDF0895E89437
:100AD600B7FF04C0A095B09511966894F7FDC1DFE5
:100AE600DEDFFD010EF4BDDF0895E894F7FF02C0D6
:100AF600B8DF6894EA23FB230EF4B3DF0895E89485
:100B0600F7FF02C0AEDF6894B7FF06C0A095B095A8
:100B1600119600F8039400FA0895689401C0E894C9
:100B260001D024DF182E862F612D192E972F712DB7
:100B36001B2EBF2FF12D1A2EAE2FE12D0895002466
:100B46000A160B0608955A934A933A932A931A93D0
:100B56000A9308955D814C813B812A811981088120
:100B66000895AC0FBD1F05900D928A95E1F7089583
:00000001FF
