:100000000C945F000C9400000C9400000C94000011
:100010000C9400000C9400000C9400000C94000060
:100020000C9400000C9400000C9400000C94000050
:100030000C9400000C9400000C9400000C94000040
:100040000C9400000C9400000C9400000C94000030
:100050000C9400000C9400000C9400000C94000020
:100060000C9400000C9400000C9400000C94000010
:100070000C9400000C9400000C9400000C94000000
:100080000C9400000C9400000C9400000000A000F0
:10009000D2000000000000009A99193F80C00100C2
:1000A0002D4E414E00494E460000060004008C00D3
:1000B000020062059C00010066059E000000F894A5
:1000C000EE27ECBBF1E0F5BFE5BFE0936C008DE0FF
:1000D000A2E0BB27ED938A95E9F780E090E1A0E0EC
:1000E000B1E0ED930197E9F7EAEAF0E085919591A7
:1000F000009761F0A591B59105901590BF01F001B1
:1001000005900D920197E1F7FB01F0CFEFEFEDBF06
:10011000E0E1EEBFC0E0D5E00C949C00AA93E8813A
:10012000E066E7B98BE18A95F1F7369A349BFECF0A
:10013000349AE5B10C945104E0E0EABBEBBBE0E695
:10014000E7BBE0E0E8BBE4BBE5BBE1BBE2BBE2B997
:10015000E3B9E0936100E0936200E0936400E09310
:100160006500E0BFE3BFE2BFE1BFE1EAEFBDEBE066
:10017000EEBDE0E0EDBDECBDE7BDE6BDEBBDEABD2B
:10018000E9BDE8BDE0937900E0937800E5BDE4BD0A
:10019000E3BDE0938B00E0938A00E0938900E09355
:1001A0008800E0938100E0938000E0938700E09373
:1001B0008600E0938500E0938400E0938300E09361
:1001C0008200E7BFE0937D00E0936A00EABFE9BFE9
:1001D000EAB9E0939A00E0E8E8B9E0E6E7B9E6E8D2
:1001E000E6B9E0E0E0BDEDB9E0937400A0E10E9463
:1001F0002504A09AA19AA29ABC9ABF9A1AD0E0E0CC
:10020000EA93A4E6C1D0A0EDB7E00E94D504E4E6ED
:10021000EA93A0E0AED0A0EDB7E00E94D50432D0C2
:100220000BD0309711F0A1E001C0A0E03AD1F7CF98
:10023000FFCF0E94190408950E94350600E010E0E7
:1002400020E030E020E030E02831E0E03E0764F4D8
:10025000A8E1B5E0A20FB31FEC91E03011F00F5F01
:100260001F4F2F5F3F4FF0CF0C30E0E01E072CF008
:10027000E1E0F0E00E943C0612C1E0E0F0E00E9404
:100280003C060DC11A9310E01830F8F40E94530494
:1002900011F4A89801C0A89A0E945B0411F4A998CF
:1002A00001C0A99A0E94680411F4AA9801C0AA9AF0
:1002B0000E947504E050FB4FFF93EF93A0E02EDF08
:1002C000AF91BF91EC931F5FDFCF10E01830F8F4CF
:1002D0000E94530411F4A89801C0A89A0E945B04DC
:1002E00011F4A99801C0A99A0E94680411F4AA986F
:1002F00001C0AA9A0E947504E85FFA4FFF93EF933A
:10030000A1E00CDFAF91BF91EC931F5FDFCF10E056
:100310001830F8F40E94530411F4A89801C0A89A68
:100320000E945B0411F4A99801C0A99A0E94680474
:1003300011F4AA9801C0AA9A0E947504E05FFA4FCE
:10034000FF93EF93A2E0EADEAF91BF91EC931F5FC2
:10035000DFCF2ED219910895AA93C49AC798E0E0EE
:10036000EBBDA881EFEFEA1BEABDE0E0E9BDE98162
:1003700020C0AA93C498C798E0E0EBBDE881EABD2D
:10038000E0E0E9BDE98115C0AA93C49AC79AE0E00C
:10039000EBBDA881EFEFEA1B06C0AA93C498C79AE9
:1003A000E0E0EBBDE881EABDE0E0E9BDA981EFEF67
:1003B000EA1BE8BD22960895BA93AA93AB81AA23BB
:1003C0009AF40E947C04AA81BB81AE17BF0724F473
:1003D0000E947C04EA83FB83A881B9818A169B066C
:1003E00014F48882998224C0A981AA239AF40E94D5
:1003F0007C04A881B981AE17BF0724F40E947C0455
:10040000E883F983AA81BB818A169B0614F48A8249
:100410009B820EC0AA81BB816A167B0614F46A8295
:100420007B82A881B9816A167B0614F4688279827E
:10043000AB81AA231AF0A981AA230AF405C0EA8194
:10044000EA93A98189DF2BC0AA81BB810E942F0674
:100450001CF0A981AA230AF407C0EA81AFEFEA02DF
:100460000A92A98191DF1BC0AB81AA232AF0A8813F
:10047000B9810E942F060CF409C0EA81EA93E98150
:10048000AFEFEA02F001AE2F74DF09C0EA81AFEFEF
:10049000EA020A92EB81EA02F001AE2F7EDF249697
:1004A0000895AA932A978AE0A0E0B0E0E2E9F0E09C
:1004B0000E9441060E94330600E010E020E030E098
:1004C00040E050E0E889E03011F12297E0E0E88375
:1004D000E983A881B9815897CCF4E881F981E0508B
:1004E000FB4FA081A83730F4E881F981E85EFA4F2C
:1004F000A1E005C0E881F981E85EFA4FA0E0A083A1
:10050000E881F9813196E883F983E3CF2296E0917F
:100510002505E030A1F4E0912705E03081F4E09179
:100520002005E03061F4E0912705E03041F4E091EE
:100530002105E03021F4E0912605E03081F0E0E093
:10054000E0936005E09361050E9482040E949B0491
:10055000E60FF71F9F01F20131962F0173C00E9431
:1005600082046E0F7F1FA0912205B0E0E4ECFFEF44
:100570000E94B004A0911C05B0E0EAEBFFEF0E94DE
:10058000B004A0911E05B0E0E6EAFFEF0E94B004BF
:10059000A0911F05B0E0EEE3FEEF0E94B004A09131
:1005A0001D05B0E0EEE3FEEF0E94B004A0911B0534
:1005B0000E94B504A09118050E94B504A0911905E8
:1005C0000E94B504A0911A05B0E0EAEDFDEF0E948B
:1005D000DA050E949B046E0F7F1FA0912405ECE3B7
:1005E0000E94B904A0912D05E6E40E94B904A091EF
:1005F0002F05EAE50E94B904A0912E05B0E0E2ECD7
:10060000F1E00E94B004A0912C05B0E0E2ECF1E032
:100610000E94B004A0912A050E94BE04A091290561
:100620000E94BE04A09128050E94BE04A0912B0543
:10063000B0E0E6E2F2E00E94DA05E60FF71F9F0164
:1006400044245524FA01E20FF31FEA87FB87E09167
:100650002305E03009F063C0E0912505E03009F0A2
:100660005EC0E0912005E03009F059C0E091270517
:10067000E03009F054C0E0912105E03009F04FC0AE
:10068000E0912605E03009F04AC0E0912205E03013
:1006900009F045C0E0912405E03009F040C0E09148
:1006A0001C05E030E1F5E0912D05E030C1F5E09169
:1006B0001E05E030A1F5E0912F05E03081F5E091D5
:1006C0001F05E03061F5E0912E05E03041F5E09145
:1006D0001D05E03021F5E0912C05E03001F5E091B9
:1006E0001B05E030E1F4E0912A05E030C1F4E0912F
:1006F0001805E030A1F4E0912905E03081F4E091A3
:100700001905E03061F4E0912805E03041F4E09112
:100710001A05E03021F4E0912B05E03039F0EA854C
:10072000FB85E0936005F093610520C0E0916005D2
:10073000F0916105EA87FB870E94C204AB32E1E0D9
:10074000BE072CF40E94C2040E942F0664F00E948F
:10075000C204E5EDFEEFEA17FB0724F4A091610562
:10076000AA230AF003C0E0E0EA87EB87EC85FD8569
:100770006E857F85AA85BB850E94CD050E941F06D8
:100780000E9473050E940E058F01F301E01BF10B1F
:10079000FA93EA93D801A60DB71D0EDEE4E1F0E06E
:1007A000E415F50508F42F010E943A0661960895B4
:1007B0001A930A9300E010E00831E0E01E07B4F459
:1007C000A0E0B5E0A00FB11FAC91A93730F0A8E1CF
:1007D000B5E0A00FB11FE1E005C0A8E1B5E0A00FB2
:1007E000B11FE0E0EC930F5F1F4FE6CF0991199125
:1007F0000895AA93EBB3EF70AE2FE881E07FEA2B68
:10080000EBBB8DE08A95F1F7DA9A8DE08A95F1F7E6
:10081000DA988DE08A95F1F744C0AA93A881E9DFC0
:10082000E881E295E883A881E4DF85E88A95F1F71D
:1008300038C0A2E00E94C704ACE0EFDFA1E00E9454
:10084000C704E0E0AE2EBE2E0895AA93EAB3E06F8F
:10085000EABBD29AD09AD19ADA98D898D998D88007
:10086000E881E058E0936405E881E054E093650591
:10087000A4E1B0E00E94D5040E94CD040E94CD0402
:100880000E94CD04A0E2B5DF88EC90E00197F1F77B
:10089000A8E2C3DFA4E0C1DFA5E8BFDFA6E0BDDFBB
:1008A000C8DF21960895E12FF0E0A1E0B0E00E94BA
:1008B0000506E0300895A12FBB27E4E0F0E00E9498
:1008C000F705DF01E2E0F0E00E94F205E030089574
:1008D000A12FBB27E8E0F0E00E94F705DF01E4E08C
:1008E000F0E00E94F205E03008951F5F11501F5F95
:1008F0001150E12FF0E00895F401AFEFBFEF0E9437
:10090000DA050895A0912305B0E0EBEFFFEF0E9418
:10091000DA05BF01A0912005B0E0E1EFFFEF0E94F2
:10092000DA056E0F7F1FA0912105B0E0E4ECFFEF28
:100930000E94DA050895E60FF71FAF01A091250583
:10094000E5E0EA9FB001A0912705EFE0EA9FF00102
:100950006E0F7F1FA0912605ECE3EA9FF00108953A
:100960000E94DA056E0F7F1F0895B0E0EAEDFDEFFB
:10097000F7CFEA9FF0016E0F7F1F0895B0E0E6E227
:10098000F2E0EECFA0916005B091610508950E945C
:100990000D04A3E0B0E00C94D504A0E30E94F90399
:1009A00088EC90E00197F1F70895109639F080ED0A
:1009B00097E00197F1F7A8951197C9F70895552386
:1009C00042F4503811F4E0FF04C03196691F791FDA
:1009D0006BF050E8572711F45F9373C05F3F31F01D
:1009E000660F000C57956795752F08955F9300204B
:1009F0000AF073C06CC050E8192E1522880F991F99
:100A00009527550F879550E8072E0522660F771F0B
:100A10007527550F67950895689401C0E8945F9312
:100A2000F2DF703818F07F3F08F44BC056E1571BD7
:100A3000AAF4519558300EF4593030F0EFEFFFEF33
:100A40006FEF7FE777F91AC077275523B9F0EE0FDC
:100A5000FF1F661F771F5A95D1F710C077275830B0
:100A600028F0EF2FF62F672F5850F9CF552331F08C
:100A700076956795F795E7955A95D1F700200AF492
:100A800084D05F910895689401C0E89430976040E5
:100A90007040B1F0002426F0772312F4009475D052
:100AA000172E7EE1112032F07A95EE0FFF1F661FA0
:100AB000111CF9CFEF2FF62F612D5F938ADF5F9125
:100AC0000895EE27FF27662777275F910895EFEFB8
:100AD000FFEF6FE77FEF5F910895EFEFFFEF6FE7B5
:100AE0007FE75F9108955F9386DF703851F3903808
:100AF00041F301240894791F23F41CF300203AF3F6
:100B0000ECCF0F921F932F933F934F9311272227E0
:100B10009927689FA0018F9F302D410D591F6B9F12
:100B2000300D411D591F8E9F27D0BF9F25D06A9F32
:100B300023D0BE9F1DD0AF9F1BD0AE9F110D291F8C
:100B4000391F491F591FE32FF42F652F522F4F9143
:100B50003F912F911F910F9066232AF0550FEE1FA2
:100B6000FF1F661F02C073954BF229DF5F91089546
:100B7000100D211D391F02C0200D311D491F591FA5
:100B80000895F195E195F0400895F0956095709580
:100B9000E195FF4F6F4F7F4F08958B2F880F880B84
:100BA000982F0895FA9FF02DEB9FF00DEA9FE02D0E
:100BB000F10D089534D0F6DF0EF4E3DF089500243C
:100BC000112490E1AA0FBB1F001C111C0E1A1F0A52
:100BD00018F40E0E1F1E01C0A1609A9599F7FD0131
:100BE000D00108951CD0EBDF0EF4CBDF0895E8941C
:100BF000B7FF04C0A095B09511966894F7FDC1DFCA
:100C0000DEDFFD010EF4BDDF0895E894F7FF02C0BA
:100C1000B8DF6894EA23FB230EF4B3DF0895E89469
:100C2000F7FF02C0AEDF6894B7FF06C0A095B0958D
:100C3000119600F8039400FA0895689401C0E894AE
:100C400001D024DF182E862F612D192E972F712D9C
:100C50001B2EBF2FF12D1A2EAE2FE12D089500244B
:100C60000A160B0608955A934A933A932A931A93B5
:100C70000A9308955D814C813B812A811981088105
:100C80000895AC0FBD1F05900D928A95E1F7089568
:00000001FF
