:100000000C945D000C9400000C9400000C94000013
:100010000C9400000C9400000C9400000C94000060
:100020000C9400000C9400000C9400000C94000050
:100030000C9400000C9400000C9400000C94000040
:100040000C9400000C9400000C9400000C94000030
:100050000C9400000C9400000C9400000C94000020
:100060000C9400000C9400000C9400000C94000010
:100070000C9400000C9400000C9400000C94000000
:100080000C9400000C9400000C9400000000000090
:10009000000000009A99193F80C001002D4E414E8A
:1000A00000494E460000020004008C000200620578
:1000B0009800010066059A000000F894EE27ECBB5A
:1000C000F1E0F5BFE5BFE0936C008DE0A2E0BB2757
:1000D000ED938A95E9F780E090E1A0E0B1E0ED933F
:1000E0000197E9F7E6EAF0E085919591009761F0D4
:1000F000A591B59105901590BF01F00105900D9265
:100100000197E1F7FB01F0CFEFEFEDBFE0E1EEBFCC
:10011000C0E0D5E00C949A00AA93E881E066E7B9C4
:100120008BE18A95F1F7369A349BFECF349AE5B18C
:100130000C94DF03E0E0EABBEBBBE0E6E7BBE0E00A
:10014000E8BBE4BBE5BBE1BBE2BBE2B9E3B9E093EA
:100150006100E0936200E0936400E0936500E0BF1B
:10016000E3BFE2BFE1BFE1EAEFBDEBE0EEBDE0E0FF
:10017000EDBDECBDE7BDE6BDEBBDEABDE9BDE8BD4B
:10018000E0937900E0937800E5BDE4BDE3BDE09342
:100190008B00E0938A00E0938900E0938800E0936D
:1001A0008100E0938000E0938700E0938600E09375
:1001B0008500E0938400E0938300E0938200E7BF32
:1001C000E0937D00E0936A00EABFE9BFEAB9E093FB
:1001D0009A00E0E8E8B9E0E6E7B9E6E8E6B9E0E089
:1001E000E0BDEDB9E0937400A0E10E94B303A09AD2
:1001F000A19AA29ABC9ABF9A03D002D1FECFFFCF98
:100200000E94A70308951A9310E01830F8F40E9492
:10021000E10311F4A89801C0A89A0E94E90311F41F
:10022000A99801C0A99A0E94F60311F4AA9801C0E6
:10023000AA9A0E940304E050FB4FFF93EF93A0E0C3
:100240006BDFAF91BF91EC931F5FDFCF10E01830F1
:10025000F8F40E94E10311F4A89801C0A89A0E9442
:10026000E90311F4A99801C0A99A0E94F60311F4B8
:10027000AA9801C0AA9A0E940304E85FFA4FFF936C
:10028000EF93A1E049DFAF91BF91EC931F5FDFCF08
:1002900010E01830F8F40E94E10311F4A89801C0AE
:1002A000A89A0E94E90311F4A99801C0A99A0E9492
:1002B000F60311F4AA9801C0AA9A0E940304E05F11
:1002C000FA4FFF93EF93A2E027DFAF91BF91EC933A
:1002D0001F5FDFCFFBD119910895AA93C49AC798E5
:1002E000E0E0EBBDA881EFEFEA1BEABDE0E0E9BD8D
:1002F000E98120C0AA93C498C798E0E0EBBDE881EB
:10030000EABDE0E0E9BDE98115C0AA93C49AC79AA5
:10031000E0E0EBBDA881EFEFEA1B06C0AA93C4980A
:10032000C79AE0E0EBBDE881EABDE0E0E9BDA98164
:10033000EFEFEA1BE8BD22960895BA93AA93AA812B
:10034000BB81A030E1E0BE0724F0E4E6F0E0EA8300
:10035000FB83A881B981A030E1E0BE0724F0E4E688
:10036000F0E0E883F983AA81BB81A130EFEFBE07FB
:1003700024F4ECE9FFEFEA83FB83A881B981A13083
:10038000EFEFBE0724F4ECE9FFEFE883F983AB81DC
:10039000AA231AF0A981AA230AF405C0EA81EA93E4
:1003A000A981BCDF2BC0AA81BB810E94B7051CF0CC
:1003B000A981AA230AF407C0EA81AFEFEA020A92F0
:1003C000A98198DF1BC0AB81AA232AF0A881B9813B
:1003D0000E94B7050CF409C0EA81EA93E981AFEF06
:1003E000EA02F001AE2F91DF09C0EA81AFEFEA0225
:1003F0000A92EB81EA02F001AE2F6FDF2496089596
:100400002A978AE0A0E0B0E0EEE8F0E00E94C9059B
:100410000E94BB0500E010E020E030E040E050E04A
:10042000F2DEE0912505E030A1F4E0912705E0300F
:1004300081F4E0912005E03061F4E0912705E0309F
:1004400041F4E0912105E03021F4E0912605E0300F
:1004500081F0E0E0E0936005E09361050E940A040A
:100460000E942304E60FF71F9F01F20131962F012E
:1004700073C00E940A046E0F7F1FA0912205B0E096
:10048000E4ECFFEF0E943804A0911C05B0E0EAEB19
:10049000FFEF0E943804A0911E05B0E0E6EAFFEFEE
:1004A0000E943804A0911F05B0E0EEE3FEEF0E9429
:1004B0003804A0911D05B0E0EEE3FEEF0E94380481
:1004C000A0911B050E943D04A09118050E943D04C7
:1004D000A09119050E943D04A0911A05B0E0EAED33
:1004E000FDEF0E9462050E9423046E0F7F1FA09102
:1004F0002405ECE30E944104A0912D05E6E40E944E
:100500004104A0912F05EAE50E944104A0912E0527
:10051000B0E0E2ECF1E00E943804A0912C05B0E0DC
:10052000E2ECF1E00E943804A0912A050E94460402
:10053000A09129050E944604A09128050E94460426
:10054000A0912B05B0E0E6E2F2E00E946205E60F22
:10055000F71F9F0144245524FA01E20FF31FEA8795
:10056000FB87E0912305E03009F063C0E0912505A9
:10057000E03009F05EC0E0912005E03009F059C09C
:10058000E0912705E03009F054C0E0912105E0300A
:1005900009F04FC0E0912605E03009F04AC0E09133
:1005A0002205E03009F045C0E0912405E03009F073
:1005B00040C0E0911C05E030E1F5E0912D05E03010
:1005C000C1F5E0911E05E030A1F5E0912F05E03086
:1005D00081F5E0911F05E03061F5E0912E05E030F6
:1005E00041F5E0911D05E03021F5E0912C05E0306A
:1005F00001F5E0911B05E030E1F4E0912A05E030DF
:10060000C1F4E0911805E030A1F4E0912905E03053
:1006100081F4E0911905E03061F4E0912805E030C3
:1006200041F4E0911A05E03021F4E0912B05E0302F
:1006300039F0EA85FB85E0936005F093610520C001
:10064000E0916005F0916105EA87FB870E944A040A
:10065000AB32E1E0BE072CF40E944A040E94B705C9
:1006600064F00E944A04E5EDFEEFEA17FB0724F46C
:10067000A0916105AA230AF003C0E0E0EA87EB87B6
:10068000EC85FD856E857F85AA85BB850E94550515
:100690000E94A7050E94FB040E9496048F01F201AC
:1006A000EC59FF4FDF01E01BF10BFA93EA93FD01D8
:1006B000E00FF11FDF0141DEECE2F1E0E415F505AA
:1006C00008F42F010E94C205609608951A930A93B8
:1006D00000E010E00831E0E01E07B4F4A0E0B5E06F
:1006E000A00FB11FAC91A93730F0A8E1B5E0A00F81
:1006F000B11FE1E005C0A8E1B5E0A00FB11FE0E047
:10070000EC930F5F1F4FE6CF099119910895AA93BB
:10071000EBB3EF70AE2FE881E07FEA2BEBBB8DE00F
:100720008A95F1F7DA9A8DE08A95F1F7DA988DE0FB
:100730008A95F1F744C0AA93A881E9DFE881E295A0
:10074000E883A881E4DF85E88A95F1F738C0A2E064
:100750000E944F04ACE0EFDFA1E00E944F04E0E014
:100760006E2E7E2E0895AA93EAB3E06FEABBD29A6A
:10077000D09AD19ADA98D898D9989880E881E05898
:10078000E0936405E881E054E0936505A4E1B0E0FE
:100790000E945D040E9455040E9455040E94550465
:1007A000A0E2B5DF88EC90E00197F1F7A8E2C3DFA3
:1007B000A4E0C1DFA5E8BFDFA6E0BDDFC8DF21966A
:1007C0000895E12FF0E0A1E0B0E00E948D05E03057
:1007D0000895A12FBB27E4E0F0E00E947F05DF0130
:1007E000E2E0F0E00E947A05E0300895A12FBB27F7
:1007F000E8E0F0E00E947F05DF01E4E0F0E00E9425
:100800007A05E03008951F5F11501F5F1150E12FEE
:10081000F0E00895A0912305B0E0EBEFFFEF0E9418
:100820006205BF01A0912005B0E0E1EFFFEF0E945B
:1008300062056E0F7F1FA0912105B0E0E4ECFFEF91
:100840000E9462050895E60FF71FAF01A0912505EC
:10085000E5E0EA9FB001A0912705EFE0EA9FF001F3
:100860006E0F7F1FA0912605ECE3EA9FF00108952B
:100870000E9462056E0F7F1F0895B0E0EAEDFDEF64
:10088000F7CFEA9FF0016E0F7F1F0895B0E0E6E218
:10089000F2E0EECFA0916005B091610508950E944D
:1008A0009B03A3E0B0E00C945D04A0E30E948703E7
:1008B00088EC90E00197F1F70895109639F080EDFB
:1008C00097E00197F1F7A8951197C9F70895552377
:1008D00042F4503811F4E0FF04C03196691F791FCB
:1008E0006BF050E8572711F45F9373C05F3F31F00E
:1008F000660F000C57956795752F08955F9300203C
:100900000AF073C06CC050E8192E1522880F991F89
:100910009527550F879550E8072E0522660F771FFC
:100920007527550F67950895689401C0E8945F9303
:10093000F2DF703818F07F3F08F44BC056E1571BC8
:10094000AAF4519558300EF4593030F0EFEFFFEF24
:100950006FEF7FE777F91AC077275523B9F0EE0FCD
:10096000FF1F661F771F5A95D1F710C077275830A1
:1009700028F0EF2FF62F672F5850F9CF552331F07D
:1009800076956795F795E7955A95D1F700200AF483
:1009900084D05F910895689401C0E89430976040D6
:1009A0007040B1F0002426F0772312F4009475D043
:1009B000172E7EE1112032F07A95EE0FFF1F661F91
:1009C000111CF9CFEF2FF62F612D5F938ADF5F9116
:1009D0000895EE27FF27662777275F910895EFEFA9
:1009E000FFEF6FE77FEF5F910895EFEFFFEF6FE7A6
:1009F0007FE75F9108955F9386DF703851F39038F9
:100A000041F301240894791F23F41CF300203AF3E6
:100A1000ECCF0F921F932F933F934F9311272227D1
:100A20009927689FA0018F9F302D410D591F6B9F03
:100A3000300D411D591F8E9F27D0BF9F25D06A9F23
:100A400023D0BE9F1DD0AF9F1BD0AE9F110D291F7D
:100A5000391F491F591FE32FF42F652F522F4F9134
:100A60003F912F911F910F9066232AF0550FEE1F93
:100A7000FF1F661F02C073954BF229DF5F91089537
:100A8000100D211D391F02C0200D311D491F591F96
:100A90000895F195E195F0400895F0956095709571
:100AA000E195FF4F6F4F7F4F08958B2F880F880B75
:100AB000982F0895FA9FF02DEB9FF00DEA9FE02DFF
:100AC000F10D089534D0F6DF0EF4E3DF089500242D
:100AD000112490E1AA0FBB1F001C111C0E1A1F0A43
:100AE00018F40E0E1F1E01C0A1609A9599F7FD0122
:100AF000D00108951CD0EBDF0EF4CBDF0895E8940D
:100B0000B7FF04C0A095B09511966894F7FDC1DFBA
:100B1000DEDFFD010EF4BDDF0895E894F7FF02C0AB
:100B2000B8DF6894EA23FB230EF4B3DF0895E8945A
:100B3000F7FF02C0AEDF6894B7FF06C0A095B0957E
:100B4000119600F8039400FA0895689401C0E8949F
:100B500001D024DF182E862F612D192E972F712D8D
:100B60001B2EBF2FF12D1A2EAE2FE12D089500243C
:100B70000A160B0608955A934A933A932A931A93A6
:100B80000A9308955D814C813B812A8119810881F6
:100B90000895AC0FBD1F05900D928A95E1F7089559
:00000001FF
