:0A0000000C9459000C9400000C94BD
:10000A0000000C9400000C9400000C9400000C9466
:10001A0000000C9400000C9400000C9400000C9456
:10002A0000000C9400000C9400000C9400000C9446
:10003A0000000C9400000C9400000C9400000C9436
:10004A0000000C9400000C9400000C9400000C9426
:10005A0000000C9400000C9400000C9400000C9416
:10006A0000000C9400000C9400000C9400000C9406
:10007A0000000C9400000C9400000C9400000C94F6
:10008A0000000000000000009A99193F80C001009A
:10009A002D4E414E00494E46000002006005960072
:1000AA000100640598000000F894EE27ECBBF1E02B
:1000BA00F5BFE5BFE0936C008DE0A2E0BB27ED93AE
:1000CA008A95E9F780E090E1A0E0B1E0ED9301972D
:1000DA00E9F7E4EAF0E085919591009761F0A5913E
:1000EA00B59105901590BF01F00105900D92019709
:1000FA00E1F7FB01F0CFEFEFEDBFE0E1EEBFC0E0CB
:10010A00D5E00C949600AA93E881E066E7B98BE102
:10011A008A95F1F7369A349BFECF349AE5B10C945E
:10012A008A02E0E0EABBEBBBE0E6E7BBE0E0E8BB63
:10013A00E4BBE5BBE1BBE2BBE2B9E3B9E093610032
:10014A00E0936200E0936400E0936500E0BFE3BFE0
:10015A00E2BFE1BFE1EAEFBDEBE0EEBDE0E0EDBDFD
:10016A00ECBDE7BDE6BDEBBDEABDE9BDE8BDE09388
:10017A007900E0937800E5BDE4BDE3BDE0938B0030
:10018A00E0938A00E0938900E0938800E09381007D
:10019A00E0938000E0938700E0938600E093850077
:1001AA00E0938400E0938300E0938200E7BFE0934A
:1001BA007D00E0936A00EABFE9BFEAB9E0939A00DA
:1001CA00E0E8E8B9E0E6E7B9E6E8E6B9E0E0E0BD8C
:1001DA00EDB9E0937400A0E16CD1A09AA19AA29A19
:1001EA00BC9ABF9A04D07ED004D0FDCFFFCF2FD1C6
:1001FA0008951A9310E01830F8F40E94BA0211F424
:10020A00A89801C0A89A0E94C20211F4A99801C034
:10021A00A99A0E94CF0211F4AA9801C0AA9A0E9430
:10022A00DC02E050FB4FFF93EF93A0E06CDFAF914D
:10023A00BF91EC931F5FDFCF10E01830F8F40E94F3
:10024A00BA0211F4A89801C0A89A0E94C20211F435
:10025A00A99801C0A99A0E94CF0211F4AA9801C0D4
:10026A00AA9A0E94DC02E85FFA4FFF93EF93A1E09B
:10027A004ADFAF91BF91EC931F5FDFCF10E01830D8
:10028A00F8F40E94BA0211F4A89801C0A89A0E9430
:10029A00C20211F4A99801C0A99A0E94CF0211F4CE
:1002AA00AA9801C0AA9A0E94DC02E05FFA4FFF9363
:1002BA00EF93A2E028DFAF91BF91EC931F5FDFCFEE
:1002CA0078D019910895BA93AA93E297EAA9FBA95B
:1002DA00FA93EA93DE0112960E948C02DE01D8D0CC
:1002EA00E4960895B4D085DFA0912505B0E0EBDF50
:1002FA00A0912305B0E0E7DFA0912705B0E0E3DF96
:10030A00A0912005B0E0DFDFA0912605B0E0DBDF99
:10031A00A0912105B0E0D7DFA0912405B0E0D3DF9A
:10032A00A0912205B0E0CFDFA0912D05B0E0CBDF90
:10033A00A0911C05B0E0C7DFA0912F05B0E0C3DF94
:10034A00A0911E05B0E0BFDFA0912E05B0E0BBDF93
:10035A00A0911F05B0E0B7DFA0912C05B0E0B3DF94
:10036A00A0911D05B0E0AFDFA0912A05B0E0ABDF98
:10037A00A0911B05B0E0A7DFA0912905B0E0A3DF9B
:10038A00A0911805BB279FDFA0912805B0E09BDF4D
:10039A00A0911905B0E097DFA0912B05B0E093DF9B
:1003AA00A0911A05B0E08FDFA8ECB0E00E94F1023C
:1003BA0008951A930A9300E010E00831E0E01E075E
:1003CA00B4F4A0E0B5E0A00FB11FAC91A93730F0AA
:1003DA00A8E1B5E0A00FB11FE1E005C0A8E1B5E0D2
:1003EA00A00FB11FE0E0EC930F5F1F4FE6CF09911A
:1003FA0019910895AA93EBB3EF70AE2FE881E07FCD
:10040A00EA2BEBBB8DE08A95F1F7DA9A8DE08A95B3
:10041A00F1F7DA988DE08A95F1F777C0AA93A88167
:10042A00E9DFE881E295E883A881E4DF85E88A9537
:10043A00F1F76BC0AA93E881F0E0E05AFA4FE08145
:10044A00A981AE0FEBDF5980488022960895A2E079
:10045A000E94E302ACE0E2DFA1E00E94E302E0E0F6
:10046A004E2E5E2E0895AA93A881AA3011F0571431
:10047A0048F0E0E0EA934394A42DDCDFA881AA3097
:10048A0009F443C05394D89AA881C8DFD8983DC0CC
:10049A00BA93AA931A93A981BA81ED91A983BA83CF
:1004AA001E2FE03019F0A12FDEDFF5CF1881239639
:1004BA000895AA93EAB3E06FEABBD29AD09AD19A86
:1004CA00DA98D898D9987880E881E058E09362055C
:1004DA00E881E054E0936305A4E1B0E00E94F102F0
:1004EA000E94E9020E94E9020E94E902A0E282DF78
:1004FA0088EC90E00197F1F7A8E290DFA4E08EDFA4
:10050A00A5E88CDFA6E08ADFA2DF21960895BA93D8
:10051A00AA93A991B991E991F99130962AF4E095B3
:10052A00F09531966DE26D93E89480E197E20DD0F3
:10053A0088EE93E00AD084E6992707D08AE005D0AE
:10054A006E2F10D066276C9308956627E817F9076F
:10055A0020F06395E81BF90BC9F7662311F416F02E
:10056A0008956894605D6D930895E12FF0E0A1E02D
:10057A00B0E00E942503E0300895A12FBB27E4E0F4
:10058A00F0E00E941703DF01E2E0F0E00E941203AC
:10059A00E0300895A12FBB27E8E0F0E00E9417039E
:1005AA00DF01E4E0F0E00E941203E03008951F5FEB
:1005BA0011501F5F1150E12FF0E008950E941302BD
:1005CA00A3E0B0E00C94F102A0E30E94FF0188ECE2
:1005DA0090E00197F1F70895109639F080ED97E0D1
:1005EA000197F1F7A8951197C9F70895F195E19543
:1005FA00F04008950024112490E1AA0FBB1F001CAB
:10060A00111C0E1A1F0A18F40E0E1F1E01C0A1603B
:10061A009A9599F7FD01D00108951CD0EBDF0EF4ED
:10062A00E5DF0895E894B7FF04C0A095B095119648
:10063A006894F7FDDBDFDEDFFD010EF4D7DF0895F6
:10064A00E894F7FF02C0D2DF6894EA23FB230EF492
:10065A00CDDF0895E894F7FF02C0C8DF6894B7FFBA
:10066A0006C0A095B095119600F8039400FA089573
:00000001FF
