:0C0000000C9459000C9400000C940000BB
:10000C000C9400000C9400000C9400000C94000064
:10001C000C9400000C9400000C9400000C94000054
:10002C000C9400000C9400000C9400000C94000044
:10003C000C9400000C9400000C9400000C94000034
:10004C000C9400000C9400000C9400000C94000024
:10005C000C9400000C9400000C9400000C94000014
:10006C000C9400000C9400000C9400000C94000004
:10007C000C9400000C9400000C9400000C940000F4
:10008C000000000000009A99193F80C001002D4E1D
:10009C00414E00494E4600000200620596000100E8
:1000AC00660598000000F894EE27ECBBF1E0F5BF74
:1000BC00E5BFE0936C008DE0A2E0BB27ED938A9541
:1000CC00E9F780E090E1A0E0B1E0ED930197E9F76A
:1000DC00E4EAF0E085919591009761F0A591B591D6
:1000EC0005901590BF01F00105900D920197E1F775
:1000FC00FB01F0CFEFEFEDBFE0E1EEBFC0E0D5E0EC
:10010C000C949600AA93E881E066E7B98BE18A9596
:10011C00F1F7369A349BFECF349AE5B10C94CC03AC
:10012C00E0E0EABBEBBBE0E6E7BBE0E0E8BBE4BB4E
:10013C00E5BBE1BBE2BBE2B9E3B9E0936100E0935C
:10014C006200E0936400E0936500E0BFE3BFE2BFB0
:10015C00E1BFE1EAEFBDEBE0EEBDE0E0EDBDECBDF3
:10016C00E7BDE6BD0E94CE03E0E0E0937900E093AA
:10017C007800E5BDE4BDE3BDE0938B00E0938A001D
:10018C00E0938900E0938800E0938100E093800085
:10019C00E0938700E0938600E0938500E093840071
:1001AC00E0938300E0938200E7BFE0937D00E0934F
:1001BC006A00EABFE9BFEAB9E0939A00E0E8E8B95F
:1001CC00E0E6E7B9E6E8E6B9E0E0E0BDEDB9E093DA
:1001DC007400A0E10E94A003A09AA19AA29ABC9AD2
:1001EC00BF9A03D007D1FECFFFCF0E94940308958E
:1001FC001A9310E01830F8F40E94D40311F4A89864
:10020C0001C0A89A0E94DC0311F4A99801C0A99A14
:10021C000E94E90311F4AA9801C0AA9A0E94F6035D
:10022C00E050FB4FFF93EF93A0E06CDFAF91BF91D9
:10023C00EC931F5FDFCF10E01830F8F40E94D4036A
:10024C0011F4A89801C0A89A0E94DC0311F4A99893
:10025C0001C0A99A0E94E90311F4AA9801C0AA9AB4
:10026C000E94F603E85FFA4FFF93EF93A1E04ADF99
:10027C00AF91BF91EC931F5FDFCF10E01830F8F413
:10028C000E94D40311F4A89801C0A89A0E94DC0320
:10029C0011F4A99801C0A99A0E94E90311F4AA9833
:1002AC0001C0AA9A0E94F603E05FFA4FFF93EF9306
:1002BC00A2E028DFAF91BF91EC931F5FDFCFEDD1B0
:1002CC0019910895AA93C49AC798E0E0EBBDA88150
:1002DC00EFEFEA1BEABDE0E0E9BDE98120C0AA939B
:1002EC00C498C798E0E0EBBDE881EABDE0E0E9BD69
:1002FC00E98115C0AA93C49AC79AE0E0EBBDA88126
:10030C00EFEFEA1B06C0AA93C498C79AE0E0EBBDD6
:10031C00E881EABDE0E0E9BDA981EFEFEA1BE8BDA9
:10032C0022960895C498C7980E94CE030895BA9354
:10033C00AA93AA81BB81A030E1E0BE0724F0EAEFCA
:10034C00F0E0EA83FB83A881B981A030E1E0BE072D
:10035C0024F0EAEFF0E0E883F983AA81BB81A130B5
:10036C00EFEFBE0724F4E6E0FFEFEA83FB83A881FE
:10037C00B981A130EFEFBE0724F4E6E0FFEFE8838C
:10038C00F983AB81AA231AF0A981AA230AF405C028
:10039C00EA81EA93A981B7DF2BC0AA81BB810E94B5
:1003AC009D051CF0A981AA230AF407C0EA81AFEFCE
:1003BC00EA020A92A98193DF1BC0AB81AA232AF01F
:1003CC00A881B9810E949D050CF409C0EA81EA93C9
:1003DC00E981AFEFEA02F001AE2F8CDF09C0EA81B0
:1003EC00AFEFEA020A92EB81EA02F001AE2F6ADF6C
:1003FC00249608952A978AE0A0E0B0E0ECE8F0E0BB
:10040C000E94AF050E94A10500E010E020E030E062
:10041C0040E050E0EDDEE0912505E030A1F4E09104
:10042C002705E03081F4E0912005E03061F4E091A3
:10043C002705E03041F4E0912105E03021F4E09112
:10044C002605E03051F0E0E0E0936005E0936105B3
:10045C000E94FD030E94160480C00E94FD036E0FD3
:10046C007F1FA0912205B0E0E4ECFFEF0E942B046B
:10047C00A0911C05B0E0EAEBFFEF0E942B04A091C9
:10048C001E05B0E0E6EAFFEF0E942B04A0911F05C9
:10049C00B0E0E4EDFEEF0E942B04A0911D05B0E04E
:1004AC00E4EDFEEF0E942B04A0911B05B0E0EEE3FF
:1004BC00FEEF0E942B04A0911805B0E0ECE0FEEFDB
:1004CC000E942B04A0911905B0E0E8EAFDEF0E9410
:1004DC002B04A0911A05B0E0E4E4FDEF0E9448055E
:1004EC000E9416046E0F7F1FA0912405ECE30E945E
:1004FC003004A0912D05E6E40E943004A0912F0554
:10050C00EAE50E943004A0912E05B0E0ECE2F1E0A7
:10051C000E942B04A0912C05B0E0ECE2F1E00E94CB
:10052C002B04A0912A05B0E0E2ECF1E00E942B0430
:10053C00A0912905B0E0E4EFF1E00E942B04A0911A
:10054C002805B0E0E8E5F2E00E942B04A0912B0511
:10055C00B0E0ECEBF2E00E944805E60FF71F9F01BC
:10056C00FA01E20FF31FEA87FB87E0912305E030E5
:10057C0009F063C0E0912505E03009F05EC0E09120
:10058C002005E03009F059C0E0912705E03009F072
:10059C0054C0E0912105E03009F04FC0E0912605F0
:1005AC00E03009F04AC0E0912205E03009F045C086
:1005BC00E0912405E03009F040C0E0911C05E030EA
:1005CC00E1F5E0912D05E030C1F5E0911E05E0303C
:1005DC00A1F5E0912F05E03081F5E0911F05E030A9
:1005EC0061F5E0912E05E03041F5E0911D05E0301C
:1005FC0021F5E0912C05E03001F5E0911B05E03090
:10060C00E1F4E0912A05E030C1F4E0911805E03006
:10061C00A1F4E0912905E03081F4E0911905E03076
:10062C0061F4E0912805E03041F4E0911A05E030E6
:10063C0021F4E0912B05E03039F0EA85FB85E0935D
:10064C006005F093610506C0E0916005F0916105CD
:10065C00EA87FB87EC85FD856E857F85AA85BB8542
:10066C000E943B050E948D050E94E1040E947C04BF
:10067C008F01EA85FB85309711F454DE0AC0ECE853
:10068C00F0E0E01BF10BFA93EA93D801A457BF4FAB
:10069C004EDE0E94A805609608951A930A9300E016
:1006AC0010E00831E0E01E07B4F4A0E0B5E0A00FC4
:1006BC00B11FAC91A93730F0A8E1B5E0A00FB11F84
:1006CC00E1E005C0A8E1B5E0A00FB11FE0E0EC93BC
:1006DC000F5F1F4FE6CF099119910895AA93EBB3C1
:1006EC00EF70AE2FE881E07FEA2BEBBB8DE08A95B3
:1006FC00F1F7DA9A8DE08A95F1F7DA988DE08A9520
:10070C00F1F744C0AA93A881E9DFE881E295E88378
:10071C00A881E4DF85E88A95F1F738C0A2E00E9451
:10072C003504ACE0EFDFA1E00E943504E0E04E2E92
:10073C005E2E0895AA93EAB3E06FEABBD29AD09AE0
:10074C00D19ADA98D898D9987880E881E058E093D3
:10075C006405E881E054E0936505A4E1B0E00E94F3
:10076C0043040E943B040E943B040E943B04A0E211
:10077C00B5DF88EC90E00197F1F7A8E2C3DFA4E0C5
:10078C00C1DFA5E8BFDFA6E0BDDFC8DF2196089575
:10079C00E0E0EBBDEABDE9BDE8BD0895E12FF0E076
:1007AC00A1E0B0E00E947305E0300895A12FBB27B3
:1007BC00E4E0F0E00E946505DF01E2E0F0E00E9479
:1007CC006005E0300895A12FBB27E8E0F0E00E941F
:1007DC006505DF01E4E0F0E00E946005E03008957B
:1007EC001F5F11501F5F1150E12FF0E00895A09191
:1007FC002305B0E0EBEFFFEF0E944805BF01A0918D
:10080C002005B0E0E1EFFFEF0E9448056E0F7F1F5F
:10081C00A0912105B0E0E4ECFFEF0E94480508959B
:10082C00E60FF71FAF01A0912505E5E0EA9FB001A7
:10083C00A0912705EFE0EA9FF0016E0F7F1FA091BA
:10084C002605ECE3EA9FF00108950E9448056E0F1F
:10085C007F1F0895EA9FF0016E0F7F1F08950E947D
:10086C008803A3E0B0E00C944304A0E30E9474035B
:10087C0088EC90E00197F1F70895109639F080ED2F
:10088C0097E00197F1F7A8951197C9F708955523AB
:10089C0042F4503811F4E0FF04C03196691F791FFF
:1008AC006BF050E8572711F45F9373C05F3F31F042
:1008BC00660F000C57956795752F08955F93002070
:1008CC000AF073C06CC050E8192E1522880F991FBE
:1008DC009527550F879550E8072E0522660F771F31
:1008EC007527550F67950895689401C0E8945F9338
:1008FC00F2DF703818F07F3F08F44BC056E1571BFD
:10090C00AAF4519558300EF4593030F0EFEFFFEF58
:10091C006FEF7FE777F91AC077275523B9F0EE0F01
:10092C00FF1F661F771F5A95D1F710C077275830D5
:10093C0028F0EF2FF62F672F5850F9CF552331F0B1
:10094C0076956795F795E7955A95D1F700200AF4B7
:10095C0084D05F910895689401C0E894309760400A
:10096C007040B1F0002426F0772312F4009475D077
:10097C00172E7EE1112032F07A95EE0FFF1F661FC5
:10098C00111CF9CFEF2FF62F612D5F938ADF5F914A
:10099C000895EE27FF27662777275F910895EFEFDD
:1009AC00FFEF6FE77FEF5F910895EFEFFFEF6FE7DA
:1009BC007FE75F9108955F9386DF703851F390382D
:1009CC0041F301240894791F23F41CF300203AF31B
:1009DC00ECCF0F921F932F933F934F931127222706
:1009EC009927689FA0018F9F302D410D591F6B9F38
:1009FC00300D411D591F8E9F27D0BF9F25D06A9F58
:100A0C0023D0BE9F1DD0AF9F1BD0AE9F110D291FB1
:100A1C00391F491F591FE32FF42F652F522F4F9168
:100A2C003F912F911F910F9066232AF0550FEE1FC7
:100A3C00FF1F661F02C073954BF229DF5F9108956B
:100A4C00100D211D391F02C0200D311D491F591FCA
:100A5C000895F195E195F0400895F09560957095A5
:100A6C00E195FF4F6F4F7F4F08958B2F880F880BA9
:100A7C00982F0895FA9FF02DEB9FF00DEA9FE02D33
:100A8C00F10D089534D0F6DF0EF4E3DF0895002461
:100A9C00112490E1AA0FBB1F001C111C0E1A1F0A77
:100AAC0018F40E0E1F1E01C0A1609A9599F7FD0156
:100ABC00D00108951CD0EBDF0EF4CBDF0895E89441
:100ACC00B7FF04C0A095B09511966894F7FDC1DFEF
:100ADC00DEDFFD010EF4BDDF0895E894F7FF02C0E0
:100AEC00B8DF6894EA23FB230EF4B3DF0895E8948F
:100AFC00F7FF02C0AEDF6894B7FF06C0A095B095B3
:100B0C00119600F8039400FA0895689401C0E894D3
:100B1C0001D024DF182E862F612D192E972F712DC1
:100B2C001B2EBF2FF12D1A2EAE2FE12D0895002470
:100B3C000A160B0608955A934A933A932A931A93DA
:100B4C000A9308955D814C813B812A81198108812A
:100B5C000895AC0FBD1F05900D928A95E1F708958D
:00000001FF
